{
  "abi": [
    {
      "inputs": [
        {
          "internalType": "contract IERC20",
          "name": "_token",
          "type": "address"
        }
      ],
      "stateMutability": "nonpayable",
      "type": "constructor"
    },
    {
      "inputs": [
        {
          "internalType": "address",
          "name": "target",
          "type": "address"
        }
      ],
      "name": "AddressEmptyCode",
      "type": "error"
    },
    {
      "inputs": [
        {
          "internalType": "address",
          "name": "account",
          "type": "address"
        }
      ],
      "name": "AddressInsufficientBalance",
      "type": "error"
    },
    {
      "inputs": [],
      "name": "ECDSAInvalidSignature",
      "type": "error"
    },
    {
      "inputs": [
        {
          "internalType": "uint256",
          "name": "length",
          "type": "uint256"
        }
      ],
      "name": "ECDSAInvalidSignatureLength",
      "type": "error"
    },
    {
      "inputs": [
        {
          "internalType": "bytes32",
          "name": "s",
          "type": "bytes32"
        }
      ],
      "name": "ECDSAInvalidSignatureS",
      "type": "error"
    },
    {
      "inputs": [],
      "name": "EnforcedPause",
      "type": "error"
    },
    {
      "inputs": [],
      "name": "ExpectedPause",
      "type": "error"
    },
    {
      "inputs": [],
      "name": "FailedInnerCall",
      "type": "error"
    },
    {
      "inputs": [],
      "name": "L1BossBridge__CallFailed",
      "type": "error"
    },
    {
      "inputs": [],
      "name": "L1BossBridge__DepositLimitReached",
      "type": "error"
    },
    {
      "inputs": [],
      "name": "L1BossBridge__Unauthorized",
      "type": "error"
    },
    {
      "inputs": [
        {
          "internalType": "address",
          "name": "owner",
          "type": "address"
        }
      ],
      "name": "OwnableInvalidOwner",
      "type": "error"
    },
    {
      "inputs": [
        {
          "internalType": "address",
          "name": "account",
          "type": "address"
        }
      ],
      "name": "OwnableUnauthorizedAccount",
      "type": "error"
    },
    {
      "inputs": [],
      "name": "ReentrancyGuardReentrantCall",
      "type": "error"
    },
    {
      "inputs": [
        {
          "internalType": "address",
          "name": "token",
          "type": "address"
        }
      ],
      "name": "SafeERC20FailedOperation",
      "type": "error"
    },
    {
      "anonymous": false,
      "inputs": [
        {
          "indexed": false,
          "internalType": "address",
          "name": "from",
          "type": "address"
        },
        {
          "indexed": false,
          "internalType": "address",
          "name": "to",
          "type": "address"
        },
        {
          "indexed": false,
          "internalType": "uint256",
          "name": "amount",
          "type": "uint256"
        }
      ],
      "name": "Deposit",
      "type": "event"
    },
    {
      "anonymous": false,
      "inputs": [
        {
          "indexed": true,
          "internalType": "address",
          "name": "previousOwner",
          "type": "address"
        },
        {
          "indexed": true,
          "internalType": "address",
          "name": "newOwner",
          "type": "address"
        }
      ],
      "name": "OwnershipTransferred",
      "type": "event"
    },
    {
      "anonymous": false,
      "inputs": [
        {
          "indexed": false,
          "internalType": "address",
          "name": "account",
          "type": "address"
        }
      ],
      "name": "Paused",
      "type": "event"
    },
    {
      "anonymous": false,
      "inputs": [
        {
          "indexed": false,
          "internalType": "address",
          "name": "account",
          "type": "address"
        }
      ],
      "name": "Unpaused",
      "type": "event"
    },
    {
      "inputs": [],
      "name": "DEPOSIT_LIMIT",
      "outputs": [
        {
          "internalType": "uint256",
          "name": "",
          "type": "uint256"
        }
      ],
      "stateMutability": "view",
      "type": "function"
    },
    {
      "inputs": [
        {
          "internalType": "address",
          "name": "from",
          "type": "address"
        },
        {
          "internalType": "address",
          "name": "l2Recipient",
          "type": "address"
        },
        {
          "internalType": "uint256",
          "name": "amount",
          "type": "uint256"
        }
      ],
      "name": "depositTokensToL2",
      "outputs": [],
      "stateMutability": "nonpayable",
      "type": "function"
    },
    {
      "inputs": [],
      "name": "owner",
      "outputs": [
        {
          "internalType": "address",
          "name": "",
          "type": "address"
        }
      ],
      "stateMutability": "view",
      "type": "function"
    },
    {
      "inputs": [],
      "name": "pause",
      "outputs": [],
      "stateMutability": "nonpayable",
      "type": "function"
    },
    {
      "inputs": [],
      "name": "paused",
      "outputs": [
        {
          "internalType": "bool",
          "name": "",
          "type": "bool"
        }
      ],
      "stateMutability": "view",
      "type": "function"
    },
    {
      "inputs": [],
      "name": "renounceOwnership",
      "outputs": [],
      "stateMutability": "nonpayable",
      "type": "function"
    },
    {
      "inputs": [
        {
          "internalType": "uint8",
          "name": "v",
          "type": "uint8"
        },
        {
          "internalType": "bytes32",
          "name": "r",
          "type": "bytes32"
        },
        {
          "internalType": "bytes32",
          "name": "s",
          "type": "bytes32"
        },
        {
          "internalType": "bytes",
          "name": "message",
          "type": "bytes"
        }
      ],
      "name": "sendToL1",
      "outputs": [],
      "stateMutability": "nonpayable",
      "type": "function"
    },
    {
      "inputs": [
        {
          "internalType": "address",
          "name": "account",
          "type": "address"
        },
        {
          "internalType": "bool",
          "name": "enabled",
          "type": "bool"
        }
      ],
      "name": "setSigner",
      "outputs": [],
      "stateMutability": "nonpayable",
      "type": "function"
    },
    {
      "inputs": [
        {
          "internalType": "address",
          "name": "account",
          "type": "address"
        }
      ],
      "name": "signers",
      "outputs": [
        {
          "internalType": "bool",
          "name": "isSigner",
          "type": "bool"
        }
      ],
      "stateMutability": "view",
      "type": "function"
    },
    {
      "inputs": [],
      "name": "token",
      "outputs": [
        {
          "internalType": "contract IERC20",
          "name": "",
          "type": "address"
        }
      ],
      "stateMutability": "view",
      "type": "function"
    },
    {
      "inputs": [
        {
          "internalType": "address",
          "name": "newOwner",
          "type": "address"
        }
      ],
      "name": "transferOwnership",
      "outputs": [],
      "stateMutability": "nonpayable",
      "type": "function"
    },
    {
      "inputs": [],
      "name": "unpause",
      "outputs": [],
      "stateMutability": "nonpayable",
      "type": "function"
    },
    {
      "inputs": [],
      "name": "vault",
      "outputs": [
        {
          "internalType": "contract L1Vault",
          "name": "",
          "type": "address"
        }
      ],
      "stateMutability": "view",
      "type": "function"
    },
    {
      "inputs": [
        {
          "internalType": "address",
          "name": "to",
          "type": "address"
        },
        {
          "internalType": "uint256",
          "name": "amount",
          "type": "uint256"
        },
        {
          "internalType": "uint8",
          "name": "v",
          "type": "uint8"
        },
        {
          "internalType": "bytes32",
          "name": "r",
          "type": "bytes32"
        },
        {
          "internalType": "bytes32",
          "name": "s",
          "type": "bytes32"
        }
      ],
      "name": "withdrawTokensToL1",
      "outputs": [],
      "stateMutability": "nonpayable",
      "type": "function"
    }
  ],
  "bytecode": {
    "object": "0x60c060405269152d02c7e14af680000060025534801561001e57600080fd5b50604051620015b7380380620015b783398101604081905261003f91610190565b338061006557604051631e4fbdf760e01b81526000600482015260240160405180910390fd5b61006e81610132565b506000805460ff60a01b19169055600180556001600160a01b038116608081905260405161009b90610182565b6001600160a01b039091168152602001604051809103906000f0801580156100c7573d6000803e3d6000fd5b506001600160a01b031660a0819052604051631f64e71f60e01b81523060048201526000196024820152631f64e71f90604401600060405180830381600087803b15801561011457600080fd5b505af1158015610128573d6000803e3d6000fd5b50505050506101c0565b600080546001600160a01b038381166001600160a01b0319831681178455604051919092169283917f8be0079c531659141344cd1fd0a4f28419497f9722a3daafe3b4186f6b6457e09190a35050565b6103f380620011c483390190565b6000602082840312156101a257600080fd5b81516001600160a01b03811681146101b957600080fd5b9392505050565b60805160a051610fb462000210600039600081816101ef015281816103b8015281816104c901526105b9015260008181610216015281816103f8015281816104f301526105960152610fb46000f3fe608060405234801561001057600080fd5b50600436106100ea5760003560e01c80638456cb591161008c578063bfd4be6411610066578063bfd4be64146101c4578063f2fde38b146101d7578063fbfa77cf146101ea578063fc0c546a1461021157600080fd5b80638456cb59146101805780638da5cb5b146101885780638decfa77146101ad57600080fd5b80633f4ba83a116100c85780633f4ba83a1461012a5780635c975abb14610132578063715018a614610155578063736c0d5b1461015d57600080fd5b8063224cfa2b146100ef57806331cb6105146101045780633d0d162814610117575b600080fd5b6101026100fd366004610c41565b610238565b005b610102610112366004610d08565b610378565b610102610125366004610d41565b6103ab565b610102610473565b600054600160a01b900460ff165b60405190151581526020015b60405180910390f35b610102610485565b61014061016b366004610d91565b60036020526000908152604090205460ff1681565b610102610497565b6000546001600160a01b03165b6040516001600160a01b03909116815260200161014c565b6101b660025481565b60405190815260200161014c565b6101026101d2366004610dae565b6104a7565b6101026101e5366004610d91565b61062e565b6101957f000000000000000000000000000000000000000000000000000000000000000081565b6101957f000000000000000000000000000000000000000000000000000000000000000081565b610240610671565b61024861069b565b805160208201207f19457468657265756d205369676e6564204d6573736167653a0a3332000000006000908152601c91909152603c812061028b908686866106c6565b6001600160a01b03811660009081526003602052604090205490915060ff166102c757604051633a7ef8bd60e21b815260040160405180910390fd5b6000806000848060200190518101906102e09190610e13565b9250925092506000836001600160a01b031683836040516103019190610ea9565b60006040518083038185875af1925050503d806000811461033e576040519150601f19603f3d011682016040523d82523d6000602084013e610343565b606091505b505090508061036457604051621322fd60e91b815260040160405180910390fd5b505050505061037260018055565b50505050565b6103806106f4565b6001600160a01b03919091166000908152600360205260409020805460ff1916911515919091179055565b6040516001600160a01b037f000000000000000000000000000000000000000000000000000000000000000081166024830152861660448201526064810185905261046c908490849084907f00000000000000000000000000000000000000000000000000000000000000009060009060840160408051601f19818403018152918152602080830180516001600160e01b03166323b872dd60e01b17905290516104589493929101610ec5565b604051602081830303815290604052610238565b5050505050565b61047b6106f4565b610483610721565b565b61048d6106f4565b6104836000610776565b61049f6106f4565b6104836107c6565b6104af61069b565b6002546040516370a0823160e01b81526001600160a01b037f00000000000000000000000000000000000000000000000000000000000000008116600483015283917f0000000000000000000000000000000000000000000000000000000000000000909116906370a0823190602401602060405180830381865afa15801561053c573d6000803e3d6000fd5b505050506040513d601f19601f820116820180604052508101906105609190610f11565b61056a9190610f2a565b1115610589576040516346cb666360e01b815260040160405180910390fd5b6105de6001600160a01b037f000000000000000000000000000000000000000000000000000000000000000016847f000000000000000000000000000000000000000000000000000000000000000084610809565b604080516001600160a01b038086168252841660208201529081018290527f5548c837ab068cf56a2c2479df0882a4922fd203edb7517321831d95078c5f629060600160405180910390a1505050565b6106366106f4565b6001600160a01b03811661066557604051631e4fbdf760e01b8152600060048201526024015b60405180910390fd5b61066e81610776565b50565b60026001540361069457604051633ee5aeb560e01b815260040160405180910390fd5b6002600155565b600054600160a01b900460ff16156104835760405163d93c066560e01b815260040160405180910390fd5b6000806000806106d888888888610863565b9250925092506106e88282610932565b50909695505050505050565b6000546001600160a01b031633146104835760405163118cdaa760e01b815233600482015260240161065c565b6107296109ef565b6000805460ff60a01b191690557f5db9ee0a495bf2e6ff9c91a7834c1ba4fdd244a5e8aa4e537bd38aeae4b073aa335b6040516001600160a01b03909116815260200160405180910390a1565b600080546001600160a01b038381166001600160a01b0319831681178455604051919092169283917f8be0079c531659141344cd1fd0a4f28419497f9722a3daafe3b4186f6b6457e09190a35050565b6107ce61069b565b6000805460ff60a01b1916600160a01b1790557f62e78cea01bee320cd4e420270b5ea74000d11b0c9f74754ebdbfc544b05a2586107593390565b604080516001600160a01b0385811660248301528416604482015260648082018490528251808303909101815260849091019091526020810180516001600160e01b03166323b872dd60e01b179052610372908590610a19565b600080807f7fffffffffffffffffffffffffffffff5d576e7357a4501ddfe92f46681b20a084111561089e5750600091506003905082610928565b604080516000808252602082018084528a905260ff891692820192909252606081018790526080810186905260019060a0016020604051602081039080840390855afa1580156108f2573d6000803e3d6000fd5b5050604051601f1901519150506001600160a01b03811661091e57506000925060019150829050610928565b9250600091508190505b9450945094915050565b600082600381111561094657610946610f4b565b0361094f575050565b600182600381111561096357610963610f4b565b036109815760405163f645eedf60e01b815260040160405180910390fd5b600282600381111561099557610995610f4b565b036109b65760405163fce698f760e01b81526004810182905260240161065c565b60038260038111156109ca576109ca610f4b565b036109eb576040516335e2f38360e21b81526004810182905260240161065c565b5050565b600054600160a01b900460ff1661048357604051638dfc202b60e01b815260040160405180910390fd5b6000610a2e6001600160a01b03841683610a81565b90508051600014158015610a53575080806020019051810190610a519190610f61565b155b15610a7c57604051635274afe760e01b81526001600160a01b038416600482015260240161065c565b505050565b6060610a8f83836000610a98565b90505b92915050565b606081471015610abd5760405163cd78605960e01b815230600482015260240161065c565b600080856001600160a01b03168486604051610ad99190610ea9565b60006040518083038185875af1925050503d8060008114610b16576040519150601f19603f3d011682016040523d82523d6000602084013e610b1b565b606091505b5091509150610b2b868383610b37565b925050505b9392505050565b606082610b4c57610b4782610b93565b610b30565b8151158015610b6357506001600160a01b0384163b155b15610b8c57604051639996b31560e01b81526001600160a01b038516600482015260240161065c565b5080610b30565b805115610ba35780518082602001fd5b604051630a12f52160e11b815260040160405180910390fd5b803560ff81168114610bcd57600080fd5b919050565b634e487b7160e01b600052604160045260246000fd5b604051601f8201601f1916810167ffffffffffffffff81118282101715610c1157610c11610bd2565b604052919050565b600067ffffffffffffffff821115610c3357610c33610bd2565b50601f01601f191660200190565b60008060008060808587031215610c5757600080fd5b610c6085610bbc565b93506020850135925060408501359150606085013567ffffffffffffffff811115610c8a57600080fd5b8501601f81018713610c9b57600080fd5b8035610cae610ca982610c19565b610be8565b818152886020838501011115610cc357600080fd5b8160208401602083013760006020838301015280935050505092959194509250565b6001600160a01b038116811461066e57600080fd5b801515811461066e57600080fd5b60008060408385031215610d1b57600080fd5b8235610d2681610ce5565b91506020830135610d3681610cfa565b809150509250929050565b600080600080600060a08688031215610d5957600080fd5b8535610d6481610ce5565b945060208601359350610d7960408701610bbc565b94979396509394606081013594506080013592915050565b600060208284031215610da357600080fd5b8135610b3081610ce5565b600080600060608486031215610dc357600080fd5b8335610dce81610ce5565b92506020840135610dde81610ce5565b929592945050506040919091013590565b60005b83811015610e0a578181015183820152602001610df2565b50506000910152565b600080600060608486031215610e2857600080fd5b8351610e3381610ce5565b60208501516040860151919450925067ffffffffffffffff811115610e5757600080fd5b8401601f81018613610e6857600080fd5b8051610e76610ca982610c19565b818152876020838501011115610e8b57600080fd5b610e9c826020830160208601610def565b8093505050509250925092565b60008251610ebb818460208701610def565b9190910192915050565b60018060a01b038416815260ff831660208201526060604082015260008251806060840152610efb816080850160208701610def565b601f01601f191691909101608001949350505050565b600060208284031215610f2357600080fd5b5051919050565b80820180821115610a9257634e487b7160e01b600052601160045260246000fd5b634e487b7160e01b600052602160045260246000fd5b600060208284031215610f7357600080fd5b8151610b3081610cfa56fea264697066735822122074ab48c70319ac3acb4bcc5441bd0acd8362d1e92386945052ff3cf69b14cdfc64736f6c63430008140033608060405234801561001057600080fd5b506040516103f33803806103f383398101604081905261002f916100d4565b338061005557604051631e4fbdf760e01b81526000600482015260240160405180910390fd5b61005e81610084565b50600180546001600160a01b0319166001600160a01b0392909216919091179055610104565b600080546001600160a01b038381166001600160a01b0319831681178455604051919092169283917f8be0079c531659141344cd1fd0a4f28419497f9722a3daafe3b4186f6b6457e09190a35050565b6000602082840312156100e657600080fd5b81516001600160a01b03811681146100fd57600080fd5b9392505050565b6102e0806101136000396000f3fe608060405234801561001057600080fd5b50600436106100575760003560e01c80631f64e71f1461005c578063715018a6146100715780638da5cb5b14610079578063f2fde38b146100a2578063fc0c546a146100b5575b600080fd5b61006f61006a36600461023c565b6100c8565b005b61006f61014c565b6000546001600160a01b03165b6040516001600160a01b03909116815260200160405180910390f35b61006f6100b0366004610266565b610160565b600154610086906001600160a01b031681565b6100d06101a3565b60015460405163095ea7b360e01b81526001600160a01b038481166004830152602482018490529091169063095ea7b3906044016020604051808303816000875af1158015610123573d6000803e3d6000fd5b505050506040513d601f19601f820116820180604052508101906101479190610288565b505050565b6101546101a3565b61015e60006101d0565b565b6101686101a3565b6001600160a01b03811661019757604051631e4fbdf760e01b8152600060048201526024015b60405180910390fd5b6101a0816101d0565b50565b6000546001600160a01b0316331461015e5760405163118cdaa760e01b815233600482015260240161018e565b600080546001600160a01b038381166001600160a01b0319831681178455604051919092169283917f8be0079c531659141344cd1fd0a4f28419497f9722a3daafe3b4186f6b6457e09190a35050565b80356001600160a01b038116811461023757600080fd5b919050565b6000806040838503121561024f57600080fd5b61025883610220565b946020939093013593505050565b60006020828403121561027857600080fd5b61028182610220565b9392505050565b60006020828403121561029a57600080fd5b8151801515811461028157600080fdfea26469706673582212206bde2807491300e3ae202acf9e18291df06e93261de983ccdd96ff51f102a66f64736f6c63430008140033",
    "linkReferences": {}
  },
  "methodIdentifiers": {
    "DEPOSIT_LIMIT()": "8decfa77",
    "depositTokensToL2(address,address,uint256)": "bfd4be64",
    "owner()": "8da5cb5b",
    "pause()": "8456cb59",
    "paused()": "5c975abb",
    "renounceOwnership()": "715018a6",
    "sendToL1(uint8,bytes32,bytes32,bytes)": "224cfa2b",
    "setSigner(address,bool)": "31cb6105",
    "signers(address)": "736c0d5b",
    "token()": "fc0c546a",
    "transferOwnership(address)": "f2fde38b",
    "unpause()": "3f4ba83a",
    "vault()": "fbfa77cf",
    "withdrawTokensToL1(address,uint256,uint8,bytes32,bytes32)": "3d0d1628"
  },
  "id": 35
}